S01700006275696C642F697269732F6D61696E2E7372656343
S11300000C947E010C949D010C949D010C949D0113
S11300100C949D010C949D010C949D010C949D01E4
S11300200C949D010C949D010C949D010C949D01D4
S11300300C949D010C945E0C0C949D010C9455063B
S11300400C941E120C9454120C940C070C94170765
S11300500C9422070C949D010C949D010C949D0119
S11300600C9469060C94DC090C949D010C945F0AB1
S11300700C949D010C949D010C949D010C94B60B61
S11300800C94950B0C94A00B0C94AB0B0C94C90B17
S11300900C94780B0C949D010C948A0B0C949D0188
S11300A00C949D010C949D010C949D010C949D0154
S11300B00C949D010C949D010C949D010C949D0144
S11300C00C949D010C949D010C949D017818E919E0
S11300D01C1A771A8F1A941AD11BFE1B101CEE1DC2
S11300E08B1EF11D051E921E9D1EF020D421FE21A3
S11300F000220D225222000021104220633084404D
S1130100A550C660E770088129914AA16BB18CC1E2
S1130110ADD1CEE1EFF13112100273325222B55259
S11301209442F772D662399318837BB35AA3BDD332
S11301309CC3FFF3DEE36224433420040114E66429
S1130140C774A44485546AA54BB528850995EEE582
S1130150CFF5ACC58DD55336722611163006D77639
S1130160F6669556B4465BB77AA719973887DFF7D2
S1130170FEE79DD7BCC7C448E5588668A778400801
S1130180611802282338CCC9EDD98EE9AFF9488922
S113019069990AA92BB9F55AD44AB77A966A711A99
S11301A0500A333A122AFDDBDCCBBFFB9EEB799B72
S11301B0588B3BBB1AABA66C877CE44CC55C222CE9
S11301C0033C600C411CAEED8FFDECCDCDDD2AADC2
S11301D00BBD688D499D977EB66ED55EF44E133E79
S11301E0322E511E700E9FFFBEEFDDDFFCCF1BBF12
S11301F03AAF599F788F8891A981CAB1EBA10CD1EC
S11302002DC14EF16FE18010A100C230E3200450F3
S1130210254046706760B9839893FBA3DAB33DC366
S11302201CD37FE35EF3B1029012F322D232354243
S1130230145277625672EAB5CBA5A89589856EF5F6
S11302404FE52CD50DC5E234C324A0148104667493
S1130250476424540544DBA7FAB79987B8975FE746
S11302607EF71DC73CD7D326F2369106B0165766E3
S11302707676154634564CD96DC90EF92FE9C899CE
S1130280E9898AB9ABA94458654806782768C01833
S1130290E1088238A3287DCB5CDB3FEB1EFBF98BA6
S11302A0D89BBBAB9ABB754A545A376A167AF10A83
S11302B0D01AB32A923A2EFD0FED6CDD4DCDAABDB6
S11302C08BADE89DC98D267C076C645C454CA23CD3
S11302D0832CE01CC10C1FEF3EFF5DCF7CDF9BAF86
S11302E0BABFD98FF89F176E367E554E745E932E23
S11302F0B23ED10EF01E00020E060C0411241FBEE5
S1130300CFEFD1E2DEBFCDBF12E0A0E0B2E0ECEA75
S1130310F0E500E00BBF02C007900D92AE32B107CA
S1130320D9F717E1AEE2B2E001C01D92A63BB107D6
S1130330E1F70E94A9220C9455280C9400008FB771
S1130340F894992708958FBF08958FB7F894992743
S113035022B131E0232722B98FBF0895282F9FB7F8
S1130360F894E82FFF27E751FD4E80818F3F81F4F9
S1130370E091AB17E21771F40BC02093F01504C0A1
S1130380FF27E751FD4E20832093AB1720E007C0E1
S113039025E005C08091F0158F3F91F7EECF892FAE
S11303A099278FBF822F992708958FB7F894282F04
S11303B03327922F8091FA148A3041F080910D13E3
S11303C0843021F02FBF89E090E008959FBF80E141
S11303D00E94AE0180E090E008959FB7F894809168
S11303E0FA148A3011F020E006C020E080910D1349
S11303F0843009F421E0892F99278FBF222349F003
S113040081E10E94AE018FB7F89499271092770288
S113041006C08FB7F894992721E0209377028FBF05
S113042008952FB7F89433278093C600E0ECF0E0EA
S11304308081806480832FBF0895FC01611571055C
S113044019F481E090E00895809127139091281386
S1130450892B19F085E090E008957093DE15609380
S1130460DD15F0932813E093271310920F131092C5
S11304700E1381E0809310138091C00080648093F8
S1130480C0008091C10080648093C100808121E01C
S113049030E030930F1320930E130E94110280E07A
S11304A090E008958FB7F8949927209188022E7FC1
S11304B0209388022EE7209300138FBF61E070E041
S11304C080E093E10E941D02992708951F931FB7AE
S11304D0F8948091A317882341F48FE00E94AE0121
S11304E0882319F481E08093A317812F99278FBF64
S11304F01F910895EF920F931F93AE2D99E0899F5A
S1130500F0011124E65FFB4E4083518362837383C1
S11305100483158326833783A17080858E7F8A2B7D
S11305208260808782E00E94AE011F910F91EF905C
S113053008957FB7F8946091B2002091E41230914D
S1130540E5124091E6125091E712B99B11C08091D7
S1130550B3009091B200280F311D411D511D2F5F32
S11305603F4F4F4F5F4F290F311D411D511D04C097
S1130570260F311D411D511D872F99278FBFCA0199
S1130580B9010895613518F080E090E008950C9663
S11305900895FC0181819927807390708164986823
S11305A08183892F992782830895882319F08CB534
S11305B0806402C08CB58F7B8CBD0895882319F0AC
S11305C08CB5806802C08CB58F778CBD089580E0AF
S11305D00E94D502229A2398219A209A8CB5806190
S11305E08CBD80E00E94DE028CB5877F8CBD8CB50B
S11305F08B7F8CBD81E00E94D5028DB581608DBD5D
S11306008CB58C7F8CBD08951F93982F8FB7F89469
S1130610182F80915C028230B1F580910D02891708
S113062091F580910B0220E030E08F3F11F421E03E
S113063030E0232BE1F48F3F19F42FEF30E00EC0AC
S1130640282F3327F901EB5DFC4E808180930B0248
S11306508F3F11F480930C028FEF808320930D025F
S113066081E080935C028CE00E94AE0105C08FEFB4
S113067080930D0210925C0280E00E94D5021FBF9D
S113068080E090E003C01FBF81E090E01F910895D7
S1130690FB01E05AFF4F21E030E002C0220F331F7C
S11306A08A95E2F720958081822380830895FB0157
S11306B0E05AFF4F21E030E002C0220F331F8A9539
S11306C0E2F78081822B808308954F925F926F922C
S11306D07F928F929F92AF92BF92CF92DF92EF92CE
S11306E0FF920F931F93CF93DF93CDB7DEB760973D
S11306F00FB6F894DEBF0FBECDBF0FB7F89480914C
S11307001C1390911D13A0911E13B0911F132091DF
S1130710840030918500B09B07C00196A11DB11DD6
S11307202091840030918500DC0199278827442793
S11307305527822B932BA42BB52B4C015D01CC2484
S1130740DD24EE24FF2480915D028983E0915E0222
S1130750EA83F0915F02FB83809160028C83E091D5
S11307606102ED83F0916202FE83809163028F83C4
S1130770E0916402E8872981280DB1E0281508F08A
S1130780B0E03A81390DA1E0391508F0A0E0EB2F73
S1130790E30FF1E0E31708F0F0E0AF2B3E2F4B81BD
S11307A04A0DB1E04A1508F0B0E0EA2FE40FF1E099
S11307B0E41708F0F0E0BF2B4E2F5C815B0DA1E045
S11307C05B1508F0A0E0EB2FE50FF1E0E51708F06A
S11307D0F0E0AF2B5E2F6D816C0DB1E06C1508F06D
S11307E0B0E0EA2FE60FF1E0E61708F0F0E0BF2BE7
S11307F06E2F7E817D0DA1E07D1508F0A0E0EB2F2A
S1130800E70FF1E0E71708F0F0E0AF2B7E2F8F81C0
S11308108E0DF1E08E1508F0F0E0EA2FE80F11E0FC
S1130820E81708F010E01F2B98859F0D190F822EF2
S1130830932EA42EB52EC62ED72EEE2E802F9927BA
S11308408FBFD501C4012C013D0133E0440C551C7C
S1130850661C771C3A95D1F7480E591E6A1E7B1EFA
S113086004E0392D8E2F912F0E942C2729873A8757
S11308704B875C8705E0282D392D4A2D5B2D6C2D87
S11308807D2D8E2D912F0E942C27A22EB32EC42EA7
S1130890D52E29853A854B855C852A0D3B1D4C1D3B
S11308A05D1D420E531E641E751EC301B201609687
S11308B00FB6F894DEBF0FBECDBFDF91CF911F916D
S11308C00F91FF90EF90DF90CF90BF90AF909F90EB
S11308D08F907F906F905F904F900895FB01E05A46
S11308E0FF4F21E030E002C0220F331F8A95E2F768
S11308F080818223992708950B9608959C01809105
S11309009213882319F081E090E0089580911B13DD
S1130910882319F4E0E0F0E003C0E82FFF273197C3
S1130920EE0FFF1FE150FB4E3183208381E0809363
S1130930921380E090E00895FC0180818D50992706
S113094008951F93CF93DF93EC01162F62E00E946A
S1130950C202FC012081809130028823F9F490E0E6
S1130960CF59DF4F8981C156D040823008F091E0E1
S11309709923A1F02F3F91F0922F9F5F80910F0256
S1130980891738F480911002981740F4909310025C
S113099005C0112359F190930F0228C0809144029D
S11309A090914502A0914602B09147020196A11D83
S11309B0B11D8093440290934502A0934602B093E4
S11309C047028091480290914902A0914A02B09155
S11309D04B020196A11DB11D8093480290934902D8
S11309E0A0934A02B0934B0280E023C089859927E3
S11309F0982F882728853327822B932B9093F715DC
S1130A008093F615818180933802809144029091FD
S1130A104502A0914602B09147020196A11DB11D65
S1130A208093440290934502A0934602B0934702F8
S1130A3081E09927DF91CF911F910895FC01E45A39
S1130A40FF4F608171818281938108952F923F923B
S1130A504F925F926F927F928F929F92AF92BF92CA
S1130A60CF92DF92EF92FF920F931F93CF93DF9376
S1130A70CDB7DEB729970FB6F894DEBF0FBECDBF52
S1130A806FB76983F8942090161330901713409031
S1130A90181350901913662477248824FEE4AF2E8B
S1130AA0E3E8BE2ECC24DD24EE24FF2400E010E095
S1130AB0222D332D442D552D662D772D882D90E034
S1130AC00E942E262A833B834C835D836E837F831F
S1130AD088879987822E932EA42EB52E2401350162
S1130AE000E20E942C27A22EB32EC42ED52EA301E1
S1130AF0920156954795379527952A0D3B1D4C1D18
S1130B005D1D57FF05C05F772F5F3F4F4F4F5F4F0E
S1130B1020931613309317134093181350931913FB
S1130B20E9818E2F99278FBFCA01B90129960FB683
S1130B30F894DEBF0FBECDBFDF91CF911F910F910F
S1130B40FF90EF90DF90CF90BF90AF909F908F90E9
S1130B507F906F905F904F903F902F900895DF9219
S1130B60EF92FF920F931F938FB7F894282F332798
S1130B70D22E9091B3008091B20047B3981711F030
S1130B8041FF02C02FBF71C0809114138823E1F18B
S1130B900E949902E0908412F090851200918612CE
S1130BA0109187122091F8153091F9154091FA159A
S1130BB05091FB156E197F09800B910B6217730717
S1130BC08407950720F01092141371E01EC02E0DB7
S1130BD03F1D401F511F8091E4129091E512A09196
S1130BE0E612B091E712281B390B4A0B5B0B273E28
S1130BF031054105510540F4822F223010F070E098
S1130C0005C070E082E002C070E086EE682F61509B
S1130C108091B60083FDFCCF8091B200681709F47F
S1130C206F5F2091E4123091E5124091E6125091E9
S1130C30E712DA01C9010196A11DB11D860F911DAC
S1130C40A11DB11D82179307A407B50710F4622FE5
S1130C5060958091B60083FDFCCF6093B300DFBE46
S1130C60772319F081E00E94AE011F910F91FF904C
S1130C70EF90DF900895AFB7F894BB27E1E0E093DD
S1130C801413609384127093851280938612909348
S1130C9087122093F8153093F9154093FA15509361
S1130CA0FB15AFBF0E94AF0508951F920F920FB6B8
S1130CB00F9211248F938091B0008093B0008091A3
S1130CC0B60081FDFCCF8F910F900FBE0F901F9047
S1130CD018951F920F920FB60F9211240F931F9322
S1130CE02F933F934F935F936F937F938F939F9330
S1130CF0AF93BF93CF93DF93EF93FF932EB5E09120
S1130D00F414F091F514309739F080919B1390917D
S1130D109C13E80FF91F208380919B1390919C13DF
S1130D20019690939C1380939B1380E00E94DE02B3
S1130D30C0919B13D0919C132091071230910812FB
S1130D40C217D30708F042C000919E1710919F1755
S1130D504091F4145091F514CE010A9628173907DE
S1130D6008F4C901DA01AC0FBD1FF801EC0FFD1F37
S1130D709C012150304015C00115110531F08081CE
S1130D808EBD0DB407FEFDCF04C01EBC0DB407FE1E
S1130D90FDCF8EB54115510509F08C93219611961E
S1130DA03196C217D30740F381E00E94DE02011599
S1130DB0110531F00C0F1D1FF80180818EBD01C09B
S1130DC01EBCD0939C13C0939B1311C01092F514B6
S1130DD01092F41410929F1710929E1710920812FA
S1130DE01092071210929C1310929B138EB5FF91D0
S1130DF0EF91DF91CF91BF91AF919F918F917F91AF
S1130E006F915F914F913F912F911F910F910F908F
S1130E100FBE0F901F90189578941F920F920FB6E3
S1130E200F9211240F900FBE0F901F901895789475
S1130E301F920F920FB60F9211240F900FBE0F90B6
S1130E401F90189578941F920F920FB60F92112449
S1130E507F928F929F92AF92BF92CF92DF92EF9246
S1130E60FF920F931F932F933F934F935F936F932F
S1130E707F938F939F93AF93BF93EF93FF93CF93FE
S1130E80DF93CDB7DEB72897F894DEBF7894CDBF53
S1130E907FB6F89480911C1390911D13A0911E139A
S1130EA0B0911F130196A11DB11D80931C13909343
S1130EB01D13A0931E13B0931F13892B09F083C035
S1130EC080905D0290905E02A0905F02B0906002FC
S1130ED0C0906102D0906202E0906302F0906402DC
S1130EE019821A821B821C8281E08D831E821F82DA
S1130EF0188600E0080D081508F080E01A81190D25
S1130F00A1E0191508F0A0E0810F91E0811708F025
S1130F1090E0A92B182F2B812A0DB1E02A1508F097
S1130F20B0E08A2F820F91E0821708F090E0B92B8D
S1130F30282F3C813B0DA1E03B1508F0A0E08B2F4E
S1130F40830F91E0831708F090E0A92B382F4D818F
S1130F504C0DB1E04C1508F0B0E08A2F840F91E0FD
S1130F60841708F090E0B92B482F5E815D0DA1E055
S1130F705D1508F0A0E08B2F850F91E0851708F030
S1130F8090E0A92B582F6F816E0DF1E06E1508F0DB
S1130F90F0E09A2F960F81E0961708F080E08F2BEF
S1130FA078857F0D870F00935D0210935E02209376
S1130FB05F02309360024093610250936202909307
S1130FC0630280936402872D99278FBF2FB7F8940B
S1130FD0332780919D1390919E13A0919F13B091FC
S1130FE0A0130196A11DB11D80939D1390939E1390
S1130FF0A0939F13B093A0132FBF2896F894DEBF3D
S1131000CDBFDF91CF91FF91EF91BF91AF919F91B0
S11310108F917F916F915F914F913F912F911F918C
S11310200F91FF90EF90DF90CF90BF90AF909F9083
S11310308F907F900F900FBE0F901F901895E6EF42
S1131040F0E06927660FF11DE60FF11DC895982F92
S1131050802D3196C89590250895982F809183020C
S1131060882389F5992379F531E0309383028091BF
S113107022028093840220917802822F81708093CF
S11310809212809127029091280290938602809375
S11310908502809179028093870232273170267EFF
S11310A0E32FFF27EE0FFF1FED5DFD4F8081918140
S11310B09093280280932702232B2093780284E1C3
S11310C00E94AE0108958091780280FF02C08B7F58
S11310D001C08D7F8093780208950F931F93082F8A
S11310E0162F80910D138130D9F0813038F0823081
S11310F009F44AC0833009F028C159C0002309F417
S113110058C11092D5151092D4151092FE14109255
S1131110E915109211131092A2131092A11339C160
S1131120002309F046C18091A1139091A2130E945B
S11311301F089093A2138093A11382E080930D1350
S11311401093E915143409F000C125C186958695DC
S113115003C0809178028695817009F0F6C0809171
S11311607802992311F0846001C082608093780230
S113117080917802877E8860809378021092790249
S11311808FEF8093220215C1002309F0DEC0609323
S113119011138091A1139091A2130E941F089093A0
S11311A0A2138093A11383E080930D1302C1809155
S11311B0FE148F3F09F4C9C0002309F461C08230D2
S11311C008F4C3C0E091D415EE2309F4EBC04E2F0C
S11311D04150E42FFF27EC52FA4E82819927382F91
S11311E02227442311F4E2E002C0E42FE150FF2758
S11311F0EC52FA4E82819927282B392B8091A11326
S11312009091A2132817390709F09FC080E00E942B
S11312102D08309111138091931320919413982FDA
S11312209F5F963008F090E0921771F0E82FFF2747
S1131230ED56FC4E32838F5F80939313863010F00B
S1131240109293130E9466021092D5151092D41531
S113125094E090930D131092FE141092E9151092DD
S113126011131092A2131092A113809188028D7F02
S11312708093880280917702882309F49AC084C0FD
S1131280823008F44EC0E091D515FF27EC52FA4E97
S11312908281482F5527342F20917802822F8695FA
S11312A086958695837099278130910519F0029768
S11312B0F9F40EC0277E206120937802442311F4B0
S11312C085E001C080E0809379023093220210C04F
S11312D080917902833660F4E0912702F09128022C
S11312E0E80FF11D4083809179028F5F809379022A
S11312F08091D515E82FFF27EC52FA4E62818F5F5B
S11313008093D515833010F01092D51577278091EE
S1131310A1139091A2130E941F089093A21380938B
S1131320A1138091D415E82FFF27EC52FA4E1283B3
S11313308F5F8093D415833010F01092D415809170
S1131340FE148F5F8093FE1434C01092D515109252
S1131350D41514E010930D131092FE141092E91595
S1131360109211131092A2131092A113809188026B
S11313708D7F8093880281E00E942D0880917702FE
S1131380882329F010930D130E94ED0112C000234D
S113139081F081E009CF80917802982F917080FDCF
S11313A0D5CED7CE8091D8159927382F222742E061
S11313B01CCF1F910F9108951F920F920FB60F9299
S11313C011242F933F934F935F936F937F938F9346
S11313D09F93AF93BF93EF93FF938091C00087FFD8
S11313E042C06091C600E091A313F091A41330971A
S11313F019F18091A1179091A217E80FF91F60834A
S113140001969093A2178093A1172091AE17309163
S1131410AF178217930738F11092A4131092A313F5
S11314208091F9148330F9F08091C1008F77809313
S1131430C1001092F91417C06E3719F460E081E00E
S113144010C0809188026D3721F4826080938802F5
S11314500AC081FF05C08D7F8093880280E26827DF
S113146080E00E946D08FF91EF91BF91AF919F9131
S11314708F917F916F915F914F913F912F910F9039
S11314800FBE0F901F901895982F8D57823068F4D7
S11314908091880281608093880280E2892780930A
S11314A0FD148DE78093001302C09093001361E054
S11314B070E080E093E10E941D02992708957894DA
S11314C01F920F920FB60F921124FF920F931F9346
S11314D02F933F934F935F936F937F938F939F9338
S11314E0AF93BF93CF93DF93EF93FF9320910E13AA
S11314F030910F138091DD159091DE15281739076F
S113150080F4E0912713F0912813E20FF31F8081F8
S11315102F5F3F4F30930F1320930E130E9411023D
S1131520D1C0109228131092271310921013809197
S1131530C1008F7B8093C100FFB6F894809188022C
S113154080FF0EC08E7F809388028091FD1480936B
S1131550001361E070E080E093E10E941D02AFC0DF
S11315608091FA14843009F48CC0853040F48230C0
S113157021F18330B8F5813009F09CC00DC086306C
S113158009F48DC0863008F483C0873009F48EC016
S1131590883009F08FC091C0809126130E94440ABC
S11315A0082F83E08093FA14609126138091AC177E
S11315B09091AD170E941F0810C08091F4150E94ED
S11315C0440A082F83E08093FA146091F415809103
S11315D0AC179091AD170E941F089093AD1780939C
S11315E0AC1766C0E091A513FF27EE0FFF1FE55D62
S11315F0FC4E80810E94440A082F1091A513C12F2C
S1131600DD27FE01EE0FFF1FE55DFC4E608180913A
S1131610AC179091AD170E941F089093AD1780935B
S1131620AC17209122132F5F20932213113039F528
S113163080917F02E0917A02F0917B02E80FF11D24
S1131640E0818F5F80937F0290917E02981730F43F
S113165082E080932C1340E050E002C04E2F5527C7
S1131660DE01AA0FBB1FFD01E65DFC4E80818230C6
S113167031F02F3F21F0A55DBC4E4C9319C084E09E
S113168012C08091AC170E94440A082F85E00BC059
S11316908091AD170E94440A082F86E004C00E947E
S11316A05202082F87E08093FA1402C088E003C036
S11316B0002329F089E08093FA140E9466028F2D9A
S11316C099278FBFFF91EF91DF91CF91BF91AF9198
S11316D09F918F917F916F915F914F913F912F9146
S11316E01F910F91FF900F900FBE0F901F901895B0
S11316F01F920F920FB60F9211248F938091C800FE
S113170087FF02C08091CE008F910F900FBE0F9083
S11317101F90189578941F920F920FB60F92112470
S11317200F900FBE0F901F90189578941F920F92F0
S11317300FB60F9211240F900FBE0F901F901895A3
S113174078941F920F920FB60F9211240F900FBE30
S11317500F901F90189578941F920F920FB60F92C6
S113176011240F900FBE0F901F90189578941F921C
S11317700F920FB60F9211248F939F93809196002E
S1131780909197009F918F910F900FBE0F901F9093
S1131790189578941F920F920FB60F9211242F93DD
S11317A03F938F939F932FB7F894332780912313FC
S11317B090912413019690932413809323132FBFA5
S11317C09F918F913F912F910F900FBE0F901F907B
S11317D01895CF92DF92EF92FF920F931F93182FD9
S11317E00E9499026B017C0180917502813009F598
S11317F08091710290917202A0917302B09174026F
S1131800A7019601281B390B4A0B5B0B6091190247
S113181070911A0280911B0290911C0203EF0E94A6
S1131820B6256093190270931A0280931B02909359
S11318301C02112341F0C0927102D0927202E09214
S11318407302F09274021F910F91FF90EF90DF905A
S1131850CF90089560917602882399F06623A1F0D1
S11318607727762F662743EF80911F0290912002FD
S11318700E9475259093200280931F021092760295
S113188008956F5F609376020895609175028823CE
S113189089F07727762F662743EF80911D02909178
S11318A01E020E94752590931E0280931D021092C1
S11318B0750208956F5F6093750208951F920F92E9
S11318C00FB60F9211242F933F934F935F936F930F
S11318D07F938F939F93AF93BF93EF93FF938091E5
S11318E0B0008093B0008091B60081FDFCCF809160
S11318F0B30099270196AA27BB272091E4123091BF
S1131900E5124091E6125091E712280F391F4A1F41
S11319105B1F2093E4123093E5124093E612509338
S1131920E7129091B10090688091B60080FDFCCFE1
S11319309093B1009F778091B60080FDFCCF909387
S1131940B10078940E94AF05FF91EF91BF91AF91E0
S11319509F918F917F916F915F914F913F912F91C3
S11319600F900FBE0F901F901895CF93DF93982F71
S11319708FB7F894C82FDD272C2F80915C02882321
S113198061F481E080935C0290930D028CE00E94EC
S1131990AE01CFBF80E090E021C0E92FFF27EB5DCF
S11319A0FC4E80818F3F89F4E0910C02E91789F4A1
S11319B00CC090930B0204C0FF27EB5DFC4E908398
S11319C090930C0280E090E002C085E090E02FBF8D
S11319D005C080910B028F3F79F7EBCFDF91CF9158
S11319E00895CF93DF938FB7F894282F3327922F3E
S11319F080910D02882331F480915C02823011F4CD
S1131A002FBF13C09FBF8FB7F894C82FDD278091D5
S1131A105C02882369F482E080935C0210920D02D8
S1131A200E94E702CFBF209A289A81E090E006C086
S1131A30CFBF80E00E94B50C80E090E0DF91CF91B1
S1131A400895EF92FF920F931F938C0160E50E941B
S1131A50C2027C01C8010E949C048051E80EF11C62
S1131A60C7011F910F91FF90EF9008951F93982F36
S1131A708FB7F894182F80915B02823099F580918A
S1131A800A02891779F58091080220E030E08F3F3F
S1131A9011F421E030E0232BE1F48F3F19F42FEF10
S1131AA030E00EC0282F3327F901E95FFC4E808116
S1131AB0809308028F3F11F4809309028FEF808393
S1131AC020930A0281E080935B0286E00E94AE01CB
S1131AD005C08FEF80930A0210925B021FBF80E063
S1131AE090E003C01FBF81E090E01F910895AF9282
S1131AF0BF92CF92DF92EF92FF920F931F93CF93F7
S1131B00DF938091D915882309F4C9C08091A01767
S1131B10813009F4C4C00E94F10C882309F4BFC0C9
S1131B208FB7F8949927C0912013D09121138FBFB8
S1131B301092D91528988FE88EBD0DB407FEFDCFFD
S1131B408EB51EBC0DB407FEFDCF8EB5289A982F16
S1131B5080910612833011F0873031F485E0809350
S1131B60A01788E080930612A92EBB24A2FE67C0AA
S1131B7080910612863019F41092061203C088234D
S1131B8009F05DC0943009F049C0289886E88EBDFC
S1131B900DB407FEFDCF8EB51EBC0DB407FEFDCF00
S1131BA0FEB4289A2FE1F22280910813982F96957B
S1131BB096953F2D391B830F8093081300918E1245
S1131BC010918F12B80181E00E944803B80182E0AD
S1131BD00E9457030F591F4FF801F1820E946503B9
S1131BE06B017C0100918E1210918F12B80180E07C
S1131BF00E945703045A1F4FCC19DD092797CE01C1
S1131C00AA2797FDA095BA2F8C0D9D1DAE1DBF1D53
S1131C10F80180839183A283B3830EC060918E12F6
S1131C2070918F1282E00E94480360918E1270912D
S1131C308F1280E00E94480385E080930612A3FE81
S1131C402EC090910612943069F485E08093A01719
S1131C50109206121092FC1590930C1388E00E94C7
S1131C60AE011DC09530D9F420911A13289886E846
S1131C708EBD0DB407FEFDCF8EB51EBC0DB407FEA0
S1131C80FDCF8EB5289A8F71922F96959695891BC4
S1131C90280F20931A1389E08093061208C020911C
S1131CA00612222309F475C2293009F082C128984A
S1131CB080E28EBD0DB407FEFDCF8EB51EBC0DB403
S1131CC007FEFDCF8EB5482F5527433008F4AEC22A
S1131CD0842F99278E3591050CF0A8C21EBCE09183
S1131CE08E12F0918F124083A42FA250A73010F4CB
S1131CF09A2F01C097E0BF016F5F7F4F292FFB012F
S1131D0040E050E00DB407FEFDCF8EB51EBC8083CD
S1131D1081914827042E4295407F4025052E542F5B
S1131D2042954F700426469554274527440F440F87
S1131D30440F4025215031F79150FB01E90FF11D6B
S1131D409F5F31968FB7F894282F332760E08091F6
S1131D50CE15833008F461E02FBF662309F45EC01A
S1131D60A91B9A2F18C00DB407FEFDCF8EB51EBC5B
S1131D70808381914827042E4295407F4025052E7B
S1131D80542F42954F700426469554274527440FF7
S1131D90440F440F4025915030F70DB407FEFDCF9A
S1131DA08EB51EBC9A012827022E2295207F20255D
S1131DB0032E322F22952F700226269532272327B1
S1131DC0220F220F220F20250DB407FEFDCF8EB562
S1131DD01EBC2827022E2295207F2025032E322F79
S1131DE022952F700226269532272327220F220FB1
S1131DF0220F20250DB407FEFDCF8EB5E0918E1283
S1131E00F0918F12EF59FF4F8083289A85E08093D9
S1131E10A01710920612232B31F0B7C10DB407FEA0
S1131E20FDCF8EB503C2E0908E12F0908F12570151
S1131E300894A11CB11CF701818520859927582F8E
S1131E4044273327422B532B8091E812282F332722
S1131E50F901EE0FFF1FE152FA4E808191816091EA
S1131E60F7148417950769F4F901EB55F84E80814E
S1131E70861709F464C0862F8F5F8093F7148083DC
S1131E801BC010E000E080E090E0CFEDD5E1E5EA92
S1131E90F7E1C62EC394DF01782F9C0188819981D4
S1131EA08417950759F42093E8128C91861709F446
S1131EB046C0C092F714CC9210E828C08081962FB7
S1131EC0981B191710F4192F022F7F5FC90101966F
S1131ED011962296319685309105F1F67530B1F45C
S1131EE00093E812A02FBB27FD01EE0FFF1FE15264
S1131EF0FA4E51834083862F8F5F8093F714FD0140
S1131F00EB55F84E8083AF54B84E1C929091F71461
S1131F10892F8F778F3779F41F3768F0E5EAF7E177
S1131F20292F207880818F6789132083319637E1A8
S1131F30EA3AF307B9F78091E812282F3327F5011D
S1131F409281A22FBB27FD01EF54F84E808180FFC0
S1131F5007C0FD01E153FA4E8081981729F102C0B0
S1131F6081608083A153BA4E9C93CFB6F89480913C
S1131F70CE158330B0F4E091F315E80FE33008F0A8
S1131F80E350FF27EE0FFF1FEF58FD4E0081118134
S1131F90F182E0828F5F8093CE1589E00E94AE01CA
S1131FA078018C2D99278FBFF0928F12E0928E12B8
S1131FB0E3C0822F8150833008F0BCC0815082304E
S1131FC008F03BC09091A0179130B9F530E08091B2
S1131FD0F614882309F431E0332379F12F98909390
S1131FE029139093F61460918400709185002FB7A3
S1131FF0F8944091840050918500CA01861B970B88
S113200003968B52934018F0CA01039603C0CB0188
S1132010855D9C4F009711F481E090E001979093C7
S113202089008093880082E086BB90916F00926063
S113203090936F0033272FBF68C0233009F042C04C
S11320408091A017833009F097C00E94F10C882377
S1132050C9F128988FE88EBD0DB407FEFDCF8EB56B
S11320601EBC0DB407FEFDCF8EB5289A8091810069
S113207080648093810080E286BB80916F008062DF
S113208080936F0090910413289888EC8EBD0DB452
S113209007FEFDCF8EB590669EBD0DB407FEFDCF45
S11320A08EB5289A289882EC8EBD0DB407FEFDCF1C
S11320B08EB586E08EBD0DB407FEFDCF8EB5289A91
S11320C084E023C0809106128150823000F5809113
S11320D0A0178530E1F40E94F10C8823C1F0289800
S11320E082EC8EBD0DB407FEFDCF8EB583E08EBDB0
S11320F00DB407FEFDCF8EB5289A80916F008F7DB9
S113210080936F001092D91583E08093A01790916B
S11321100612913041F48091A0178330B1F52F9AC3
S11321209093A01725C0923039F58091A017833081
S113213061F51EC0273001F50E94F10C8823E1F0FF
S113214090910413289888EC8EBD0DB407FEFDCF42
S11321508EB590669EBD0DB407FEFDCF8EB5289A50
S11321608091A017853021F484E08093A01704C0E7
S113217088E08093061204C080910612883029F406
S11321801092061287E00E94AE0180910612882305
S1132190C9F48091A017853091F48091D9158823D2
S11321A071F480910C13823051F481E080930C130C
S11321B088E00E94AE0180910612882319F48AE017
S11321C00E94AE018091F614823019F51092F61433
S11321D0809129138130E9F48091A017823021F491
S11321E083E08093A01713C080910612863079F49F
S11321F010920612289881E88EBD0DB407FEFDCF1B
S11322008EB51EBC0DB407FEFDCF8EB5289A0E9474
S11322100A128FB7F894282F332780910313813043
S113222061F081E0809303132FBF6BCC289A85E083
S11322308093A01710920612A8CF109203132FBFF9
S1132240DF91CF911F910F91FF90EF90DF90CF908E
S1132250BF90AF9008958FB7F894282F33278091BB
S11322600313815080930313803811F02FBF089516
S113227081E0809303132FBF0E94770D08951F936D
S1132280FC018FE3828780918D028F5F80938D02A2
S113229083832FB7F8943327809103138F5F809340
S11322A003132FBF80910C13882311F015E00DC088
S11322B0F093FC14E093FB1481E080930C131092D0
S11322C0F81488E00E94AE0110E00E942B11812FC7
S11322D099271F910895EF92FF920F931F93CF9325
S11322E0DF93082F7B01EA01122F213518F086E0D5
S11322F090E089C08A81298140E09927982F882716
S11323003327822B932B87749C7C8154984809F43F
S113231041E0442319F4CE010E94C902135F1883DB
S11323202FB7F894332780910502909106022FBFAE
S11323308887892F992789872FB7F8943327809125
S113234007022FBF99278C831D82CE010E947C0433
S1132350FC010083EE828F2D99278F838FB7F89429
S1132360282F332780915B02882371F482E08093C5
S11323705B0210920A022FBFCE010E943F119927DF
S1132380182F882399F00FC02FBFD0930613C09342
S113239005138FB7F894C82FDD272C2F80915B028B
S11323A0882399F406C080E00E94360D812F992776
S11323B02AC081E080935B0210920A0286E00E94A8
S11323C0AE01CFBF80E090E01EC0809107138F3F25
S11323D089F4E0910902EE2369F010C0109208021A
S11323E004C0FF27E95FFC4E10821092090280E0CE
S11323F090E002C085E090E02FBF05C08091080204
S11324008F3F79F7EBCFDF91CF911F910F91FF9021
S1132410EF9008958FB7F894282F332780910313F2
S1132420882329F08068809303132FBF089581E0E7
S1132430809303132FBF0E94770D089578941F9201
S11324400F920FB60F9211242F933F934F935F93E4
S11324506F937F938F939F93AF93BF93EF93FF9368
S1132460E6E8F0E080819181208131818FB7F89492
S11324709927309321132093201321E02093D91519
S11324808FBF0E940A12FF91EF91BF91AF919F916C
S11324908F917F916F915F914F913F912F910F9009
S11324A00FBE0F901F90189578941F920F920FB63D
S11324B00F9211242F933F934F935F936F937F93C6
S11324C08F939F93AF93BF93EF93FF9380916F008C
S11324D08D7F80936F0078949FB7F8948091F61461
S11324E0813019F482E08093F614892F99278FBFE5
S11324F00E940A12FF91EF91BF91AF919F918F912A
S11325007F916F915F914F913F912F910F900FBEEB
S11325100F901F901895AF92BF92CF92DF92EF92D7
S1132520FF920F931F93CF93DF935B016C01C0E085
S1132530D0E0EAE0F4E1608561FFC0C02081318130
S113254042815381E480F58006811781D601C5015B
S1132550821B930BA40BB50B8E159F05A007B10727
S113256008F4ACC060FF03C06D7F608708C02E0D07
S11325703F1D401F511F2083318342835383C13049
S113258049F1C13038F0C23009F43CC0C33009F01D
S11325909BC090C080910113882309F495C09FB714
S11325A0F89480910D13882319F484E080930D131B
S11325B0892F99278FBF9FB7F8948091FA148823A5
S11325C019F48AE08093FA14892F99278FBF0E9407
S11325D0ED017AC040916602509167026091EE1558
S11325E07091EF152091B01781E80E946B11992723
S11325F0882321F482E08093650266C080930E02F2
S11326008DE059C090915A02892F8051823008F48C
S11326105BC09631A1F48091360290913702892BE8
S113262061F480913002882331F480910F028F3F4E
S113263011F485E13BC085E039C08CE037C09F30A0
S113264091F5209110022F3F79F080910F028F3F76
S113265059F099270196820F911D62E070E00E9463
S1132660E22760930F0203C08FEF80930F028091E3
S11326705602909157020196909357028093560206
S113268080913002882369F480910F028F3F49F4CE
S11326908091580290915902019690935902809327
S11326A058028EE003C09A3019F48BE080935A02EA
S11326B085E001C08EE00E94AE0106C021963996E5
S11326C0C430D10509F037CF82E00E94AE01DF911A
S11326D0CF911F910F91FF90EF90DF90CF90BF901B
S11326E0AF9008951F93CF93DF93382F8091020208
S11326F0882309F451C080916A029927282F8823DE
S113270009F44AC0332329F480919012281708F45D
S113271043C0E0916802FF27EE0FFF1FE453FA4E17
S1132720C081D181CE010E949C04182F8091360271
S113273090913702892B81F580915A02853060F19E
S1132740863141F4809124148D7F8093241485E094
S11327500E94AE0190915A02892F8551823010F067
S1132760953011F48CE00BC0963011F48DE007C065
S11327709B3021F0923111F0933119F48EE0809363
S11327805A02D0933702C09336021093A61381E005
S11327908093831210923502DF91CF911F91089597
S11327A0AF92BF92CF92DF92EF920F931F935B0190
S11327B06C010E949902AB01BC01E1E0EE2E96018E
S11327C0850182E00E947A021F910F91EF90DF90C1
S11327D0CF90BF90AF9008951F93CF93DF93EC01F8
S11327E080915A028F3009F073C08FB7F8949927FB
S11327F040910502509106028FBF8F812E81992747
S1132800982F88273327822B932B4817590711F0C9
S113281010E035C020913602309137021092370211
S11328201092360240918312E0916802FF27EE0F66
S1132830FF1FE453FA4E8081918128173907C1F4B0
S1132840442399F4C9010E947E0480916802909106
S11328506A02992351F08F5F80936802813011F4EA
S113286010926802915090936A0281E00E94721360
S113287080E00E94450C80E00E94E90B11E0612F8A
S1132880CE010E94A10420913602309137028823A0
S113289081F0232B89F0112351F060912014709161
S11328A0211480912214909123140E94D01380E16A
S11328B009C0232B09F095C0809124148D7F809347
S11328C0241482E180935A0285E00E94AE0189C0FB
S11328D08051823008F085C0898528859927982FF2
S11328E088273327822B932B2091F6153091F715E7
S11328F08217930709F075C08F812E819927582F6D
S113290044273327422B532B8FB7F89499272091D0
S11329100502309106028FBF4217530709F461C0C4
S11329204F5F5F4F09F057C05CC060E0CE010E946A
S1132930A104882319F010935A02C6CF8FE0809324
S11329405A024FC0409136025091370220916502DD
S1132950222309F446C080916602909167024817C9
S1132960590709F03EC0213061F480911B148D7F1A
S113297080931B1483E080930E028DE00E94AE01CD
S113298020C0223071F58FB7F89499272091031352
S11329902F5F209303138FBF80910C1381508230DB
S11329A010F015E00AC084E080930C1383E0809358
S11329B0FC1588E00E94AE0110E00E942B11112347
S11329C081F460E0CE010E94A104882351F081E0EB
S11329D08093390206C010915A02103109F0B2CF27
S11329E0A4CFCE01DF91CF911F9108952F923F92F2
S11329F04F925F926F927F928F929F92AF92BF920B
S1132A00CF92DF92EF92FF920F931F93CF93DF93B6
S1132A10CDB7DEB72A970FB6F894DEBF0FBECDBF91
S1132A2019821A821B821C828FB7F894282F3327AD
S1132A308091CE15882309F424C2E091F315FF2771
S1132A40EE0FFF1FEF58FD4E408051802FBFF20163
S1132A508285E780A6808F3309F0CCC1C2010E9431
S1132A607C04FC01E081B201645F7F4FD2018C9150
S1132A708D50482F55278E2D9927B82FAA278A2D98
S1132A809927A82BB92B8FB7F89499272091050281
S1132A90309106028FBFA217B30721F0AF5FBF4F7B
S1132AA009F0DEC1E03809F4A0C1E13809F0BCC185
S1132AB080915A028A3009F0B7C1809124148D7F25
S1132AC080932414F201818520859927982F8827E3
S1132AD03327822B932B909304028093030287E085
S1132AE080935A0285E00E94AE0180915202909137
S1132AF05302A0915402B09155020196A11DB11D3B
S1132B008093520290935302A0935402B0935502BF
S1132B1080E00E942A0CC2010E94210D9A878987B5
S1132B20F3E02F2E312C280E391EFC018381E82F6F
S1132B30FF27E73058F480913002882339F48091DC
S1132B40000229853A85E20FF31F8583D1018C9118
S1132B508F5F8C93E985FA852485E5848685A7842F
S1132B609927AA27BB276624782E892E9A2E3327E5
S1132B7044275527522F442733272227FF24002791
S1132B8011278701FF24EE242E293F29402B512BA6
S1132B90BB24CC24DD242A293B294C295D29622A23
S1132BA0732A842A952A161417041804190444F065
S1132BB0C2010E941E05660D771D881D991D03C064
S1132BC0C2010E941E05E985FA856787272F382FE1
S1132BD0492F552726879C01442755272587692F88
S1132BE07727882799276487B20183E00E945703D7
S1132BF0A985BA858C91FD0121819927582F4427F5
S1132C003327422B532BA28080913002882311F06A
S1132C1000E002C0D1010C910C83AB825A8349833A
S1132C2070916B02E0906C02372F10E025C0E32F07
S1132C30FF27EE0FFF1FEE0FFF1FE350FA4E8081B8
S1132C409181A281B3818C802B81E981FA818E17D5
S1132C509F0709F008C1A21709F005C1B81508F4C7
S1132C6002C1809133029091340201969093340210
S1132C7080933302D9C01F5F1E15C9F6FAC08DE1D7
S1132C8080936B0203C0715070936B02E0916B02EE
S1132C902E2F3327220F331F220F331F23503A4E78
S1132CA08D819E81AF81B885F90180839183A28350
S1132CB0B38380916C028E3118F48F5F80936C0221
S1132CC080916F02909170020196909370028093AC
S1132CD06F02809130028823C9F11FB7F894809164
S1132CE00113882321F58091E3129927FC01EE0F4B
S1132CF0FF1FED56FD4E80809180518240820196E7
S1132D0068E270E00E94E2278093E3122091DC15D0
S1132D10281719F481E0809301138091F515882315
S1132D2081F40E94AE0181E08093F5150AC0809180
S1132D302E028F5F80932E0282B192E0892782B99E
S1132D404201812F99278FBF24016EC090E08091AA
S1132D509213882309F491E0992331F420916A02B3
S1132D60822F9927213051F48091310290913202BF
S1132D700196909332028093310256C08823A1F4C5
S1132D8080916902E82FFF27EE0FFF1FE453FA4EEC
S1132D90518240828F5F80936902813011F41092D6
S1132DA069022F5F20936A0284E00E94AE01909131
S1132DB09213992319F44424552436C080911B138B
S1132DC0E82FFF27EE0FFF1FE150FB4E408051809C
S1132DD0118210829150909392138F5F80931B13F2
S1132DE0813011F510921B131FC0C2010E94EC1315
S1132DF02C011AC08E2D9927582F44278A2D9927E4
S1132E00482B592B8FB7F8949927209105023091BC
S1132E1006028FBF4217530719F04F5F5F4F21F42B
S1132E208FB7F89499278FBF9FB7F8948091F315C3
S1132E30E82FFF27EE0FFF1FEF58FD4E518240820F
S1132E408F5F8093F315833010F01092F315809107
S1132E50CE1581508093CE15892F99278FBFE4CD4D
S1132E60E03811F7C2CF3F5F3E3108F404CF30E0C1
S1132E7002CF0887AF825E834D83772309F4FFCEA8
S1132E8002CF2FBF2A960FB6F894DEBF0FBECDBF78
S1132E90DF91CF911F910F91FF90EF90DF90CF9032
S1132EA0BF90AF909F908F907F906F905F904F9066
S1132EB03F902F9008951F93162F8091241481FD25
S1132EC010C0662339F462E070E080E090E00E9474
S1132ED0D01309C060E070E080E090E00E94D0135D
S1132EE016C06623A1F480914C0290914D02A091EA
S1132EF04E02B0914F020196A11DB11D80934C0268
S1132F0090934D02A0934E02B0934F0218C080914B
S1132F105002909151020196909351028093500275
S1132F20133069F480913902813049F410923902E6
S1132F3080E180935A0285E00E94AE0103C08FE0D5
S1132F4080935A021F910895AF92BF92CF92DF925D
S1132F50EF920F931F93CF93DF93E82E5A016B01E7
S1132F6080912102CE2DDD278330A1F4FE01EE0FE6
S1132F70FF1FEE0FFF1FE958FD4E4083518362830C
S1132F807383E0922102C75FDC4E8883E81609F45C
S1132F907CC047C08E01000F111F000F111F09587C
S1132FA01D4EF801408351836283738380912D14F5
S1132FB081FF17C00E949902209125143091261494
S1132FC04091271450912814621B730B840B950BAA
S1132FD06A0D7B1D8C1D9D1DF801608371838283A6
S1132FE0938350912102E52FFF27EE0FFF1FEE0F71
S1132FF0FF1FE958FD4E80819181A281B381A816FB
S1133000B906CA06DB0610F5C75FDC4E5883E092AA
S11330102102F3E0EF16C9F1F801A080B180C2806B
S1133020D380A114B104C104D10421F48EE00E9420
S1133030AE012BC00E949902AB01BC0181E0E82ED5
S11330409601850183E00E947A021FC0252F332751
S1133050275F3C4EF9014081433091F0542FE42F17
S1133060FF27EE0FFF1FEE0FFF1FE958FD4E808173
S11330709181A281B381A816B906CA06DB0630F78E
S1133080F901E082C75FDC4E4883DF91CF911F9145
S11330900F91EF90DF90CF90BF90AF9008952F9253
S11330A03F924F925F926F927F928F929F92AF92D4
S11330B0BF92CF92DF92EF92FF920F931F93CF9321
S11330C0DF93CDB7DEB72F970FB6F894DEBF0FBEF0
S11330D0CDBFE82FFF27E531F10510F00C947322E2
S11330E0EA59FF4FEE0FFF1F0590F491E02D09946C
S11330F08FB7F894282F3327422F9091E3128091B1
S1133100DC15981749F480910113882329F410924F
S1133110F5152FBF0C9473224FBFE091DC15FF27E8
S1133120EE0FFF1FED56FD4E0190F081E02DFD875F
S1133130EC87CF010E949C048051282F33273B87C2
S11331402A872C5E2B838C859D850E94210DDC01B2
S1133150FC01F481F9878C91FD0121819927982F35
S113316088273327822B932B2C853D852B5F3F4F5C
S11331703D872C8727E0AC85BD851D922A95E9F70C
S1133180EC85FD853597FD87EC878087892F992706
S113319087838C859D850E94210DFC01E484258410
S11331A0A684A785A8878C859D850E941E053B0162
S11331B04C01BB24CC24DD24DC2CCB2CBA2CAA243B
S11331C0FF24002711271E2D0027FF24EE2433247B
S11331D044245524210133242224E228F3280429F9
S11331E01529F8858F2F9927AA27BB27E82AF92ABA
S11331F00A2B1B2BAE28BF28C02AD12A6A187B08A9
S11332008C089D08BAE09694879477946794BA954D
S1133210D1F76A856C5D8C859D850E94C2022C0164
S11332202B81420E511C920124503040D2016E92E7
S11332302D01BB27A92D982D872DF20182932F01F3
S1133240340188249924D2016E922D01F90110824F
S11332500E9499025B016C010E9465036C837D836B
S11332608E839F838C859D850E94210DFC0184851E
S1133270E58426856784332744275527542F432F15
S1133280322F22279927AA27BB27B82FAA279927A5
S11332908827FF24002711278701FF24EE248E2985
S11332A09F29A02BB12B7724882499248629972938
S11332B0A829B929282B392B4A2B5B2B8C819D817A
S11332C0AE81BF81821B930BA40BB50B8C839D83B2
S11332D0AE83BF835AE0B695A795979587955A957F
S11332E0D1F7A81AB90ACA0ADB0AAEEFBFEF4A0E31
S11332F05B1EF201A082BB27AD2D9C2D8B2D8293EA
S1133300C601AA27BB278293AD2CBB24CC24DD2481
S1133310DF01AE92E091DC15FF27EE0FFF1FED56A3
S1133320FD4EA081B181EB81E13510F00C94262291
S11333308FEFFD0186838583298523873B81318730
S113334080917C0290917D02892B11F00C942622AD
S11333502FB7F894332785E080937F021092800280
S1133360B0937B02A0937A0282E090E090937D0276
S113337080937C0210928202109281028A85805E80
S113338080937E022FBF8FB7F894282F3327809124
S1133390FA148A3011F42FBF16C02FBF9FB7F894C8
S11333A080912C13882311F020E006C081E08093E3
S11333B02C1310922D1321E0892F99278FBF2223DC
S11333C011F00C94D12110927D0210927C020C9485
S11333D0262280910213882361F52091EA15309109
S11333E0EB154091EC155091ED15EFB7F894FF27CC
S11333F06091841270918512809186129091871247
S1133400E090F815F090F9150091FA151091FB155C
S11334106E0D7F1D801F911FEFBF2093EA1530931F
S1133420EB154093EC155093ED15109202130E9486
S11334303B060E94990244C00E9499027B018C01C0
S11334408FB7F8949927109214138FBF8FEF682EBB
S11334508FEF782E8FEF882E8FE7982E60E0EAE0CA
S1133460F4E1808581FF1CC080819181A281B381B8
S1133470A8019701281B390B4A0B5B0BDA01C90120
S11334802481358146815781281B390B4A0B5B0BFC
S113349026153705480559051CF439014A0161E030
S11334A0399634E1EE32F307E1F6662311F40C9415
S11334B07322161417041804190434F0C801B70150
S11334C00E948B120C9473226092EA157092EB1591
S11334D08092EC159092ED1581E080930213A40183
S11334E09301C801B7010E943B060C94732290E03B
S11334F080916A02882309F491E0992311F00C94D5
S11335007322E0916802FF27EE0FFF1FE453FA4E87
S1133510808191810E947E0483E00C944F2280E09C
S11335200E9472130C94732280915A02853011F018
S11335308C3049F58FB7F8949927209103132F5FA6
S1133540209303138FBF80910C13882309F045C087
S113355080910612882309F040C08091A017813021
S113356049F490E08091F614882309F491E09923BA
S1133570A1F102C0853089F183E0809306120E9494
S11335800A1285E01FC0833111F0813049F58FB7ED
S1133590F8949927209103132F5F209303138FBF6F
S11335A080910C138823C9F4809106128823A9F40E
S11335B08091A017813089F081E0809306120E94E7
S11335C00A1286E080930C130E942B1180915A02F8
S11335D08F5F80935A020C9473220E942B11F8C2BD
S11335E0843041F48091A4178093AA1785E08093D6
S11335F05A0255C7833019F410925A0274C78531A0
S1133600E1F40E942605DC01CB0160911213709154
S113361013130091FE121091FF12060F171F660F6D
S1133620771F0E94CE27081B190B22273327C901B5
S1133630B8010E94D01386E1CCCF8E30E1F46091C2
S113364015137727882799272091190230911A0298
S113365040911B0250911C02220F331F441F551F1F
S11336600E94AF270E94D0138FE080935A0281E01A
S11336700E94E90B38C7893069F46091AA1777274B
S11336806C5F7F4F882777FD8095982F0E94D01319
S11336908AE09FCF803109F03FC09091A6134091FA
S11336A03602509137022091F6153091F71580912A
S11336B06502882361F581E0809365023093EF15FC
S11336C02093EE1550936702409366029093B017CF
S11336D010920E020E942605DC01CB016091380293
S11336E077276F5F7F4F0E94CE275C01CC24DD24B7
S11336F00E949902AB01BC01E1E0EE2E9601850126
S113370081E00E947A021092831281E162CF85E007
S11337108093831282E15AC2873081F58EE092E170
S11337200E94C90210926E1262E08EE092E10E9441
S1133730C202FC0180913002882319F080E090E0FD
S113374003C080910F02992780838091AA178183F7
S1133750609103027091040222E04EE052E180E89D
S11337600E946B112FEF3FEF30930402209303026A
S1133770882311F488E02DCF8BE028C2823151F4E4
S113378083E180935A0285E00E94AE0181E00E94A9
S1133790450CA9C68B3009F0A6C681E00E942A0C0C
S11337A014C28FB7F894992722E020935B028FBF4D
S11337B080910A02882309F096C68091051390919E
S11337C006130E943F11082F1127002309F48BC60A
S11337D080E00E94360D80910513909106130E949B
S11337E07C04FC0180819927803809F4E5C1813883
S11337F009F079C610926502602F98C280910C136B
S113380010920C13853011F41298D2C1863011F441
S1133810129ACEC1873009F466C680930C1363C62E
S11338208FB7F8949927209103132F5F20930313E4
S11338308FBF80910C13813009F068C18091F81416
S11338408F5F8093F814863008F060C14091FB14B8
S11338505091FC145A83498380910612882309F0FD
S11338604CC18091A017853009F047C18091D915CA
S1133870882309F042C10E94F10C882309F43DC158
S113388069817A8181E00E946E04882311F490E0BA
S11338900DC089819A818F599F4F9A838983FC0136
S11338A09181E156F040FA83E9839F7080919113EE
S11338B0981781F090939113289885EC8EBD0DB4E0
S11338C007FEFDCF8EB590689EBD0DB407FEFDCFFB
S11338D08EB5289A289882EC8EBD0DB407FEFDCFD4
S11338E08EB589E08EBD0DB407FEFDCF8EB5289A46
S11338F00E9465033B014C0109811A810F5F1F4F30
S1133900A981BA818C91482E5524F42CBD0183E001
S11339100E946E04882349F04981401B842D855000
S1133920480F742D741B725003C0442D425070E034
S1133930289881E88EBD0DB407FEFDCF8EB51EBC60
S11339400DB407FEFDCF8EB5289A8F71893091F0A2
S1133950289882EC8EBD0DB407FEFDCF8EB586E0AF
S11339608EBD0DB407FEFDCF8EB5289A80E00E946F
S11339700403C3C08FB7F89499272F9A2091840029
S1133980309185008FBF2F98289880E68EBD0DB4A6
S113399007FEFDCF8EB5FEBCF801642F91910DB4E6
S11339A007FEFDCF8EB59EBD6150C1F74150040F97
S11339B0111D1F870E87F8013196FD87EC872619A4
S11339C037092E553F4F1901442437FC4094542C99
S11339D0260C371C481C591C772309F462C0F801D3
S11339E02181EC85FD85E180F8018381A4809927FC
S11339F0AA27BB276624782E892E9A2E332744279C
S1133A005527522F442733272227FF240027112725
S1133A108701FF24EE242E293F29402B512BBB2460
S1133A20CC24DD242A293B294C295D29622A732AC6
S1133A30842A952AD401C30182199309A409B509DA
S1133A408483292F3A2F4B2F552723839D01442705
S1133A505527EC85FD8521838B2F9927AA27BB2722
S1133A60EE85FF858183EC85FD85E60FF11DE08100
S1133A700DB407FEFDCF8EB5EEBD6F5F671799F7E6
S1133A80EC85FD856382BB27A92D982D872D828324
S1133A90C401AA27BB278183892D9927AA27BB277D
S1133AA080830DB407FEFDCF8EB5289A289882EC4A
S1133AB08EBD0DB407FEFDCF8EB586E08EBD0DB470
S1133AC007FEFDCF8EB5289A69817A8180E00E9435
S1133AD0570329813A81245A3F4FD9012D923D92AF
S1133AE04D925C92139786E08093A01784E08093B4
S1133AF006121092FC1583E004C085E08093FC1547
S1133B0082E080930C130E942B11EDC410920C13CD
S1133B100E942B111091FC15E090FB14F090FC1402
S1133B20F70182858F3309F0DEC480E00E94360DF0
S1133B30C7010E947C04FC0180819927803821F010
S1133B40813809F0D0C446C01123B1F5F70187814B
S1133B5026819927982F88273327822B932B8F5FD1
S1133B609F4F99F080913E0290913F02A0914002B4
S1133B70B09141020196A11DB11D80933E02909324
S1133B803F02A0934002B093410280913A02909187
S1133B903B02A0913C02B0913D020196A11DB11DD2
S1133BA080933A0290933B02A0933C02B0933D026F
S1133BB080915A028F5F0AC0809142029091430221
S1133BC00196909343028093420283E180935A02C8
S1133BD085E065C410926502612FA8C00E94F614A6
S1133BE082C48FB7F89499271092F5141092F414A4
S1133BF010929F1710929E1710920812109207129B
S1133C0010929C1310929B136DC40FB7F894112754
S1133C1082E080935C020E94E7020FBF80910D0254
S1133C20882309F060C4209A289A8091A0178823D9
S1133C3009F075C08EEF91E0019701960197E1F7C5
S1133C4016982F9886E090E0019701960197E1F786
S1133C50169A289883EC8EBD0DB407FEFDCF8EB561
S1133C601EBC0DB407FEFDCF8EB5289A289882ECB1
S1133C708EBD0DB407FEFDCF8EB588E08EBD0DB4AC
S1133C8007FEFDCF8EB5289A8EEF91E0019701963D
S1133C900197E1F728988EEC8EBD0DB407FEFDCF99
S1133CA08EB58DE48EBD0DB407FEFDCF8EB5289A7A
S1133CB0289889EC8EBD0DB407FEFDCF8EB587EC38
S1133CC08EBD0DB407FEFDCF8EB5289A289885ECDD
S1133CD08EBD0DB407FEFDCF8EB580E88EBD0DB44C
S1133CE007FEFDCF8EB5289A1092911383E180933D
S1133CF00413289888EC8EBD0DB407FEFDCF8EB555
S1133D0083E78EBD0DB407FEFDCF8EB5289A2F9A9A
S1133D1081E08093A01780E00E940403E4C30E9422
S1133D200A12E1C31092650260910E02809166024C
S1133D30909167020E945B17D6C34FB7F89455273A
S1133D40809121029927FC01E75FFC4E208120939A
S1133D5021024FBF60912102F82E8C01000F111F28
S1133D60000F111F09581D4E1DC07727FB01EE0FD0
S1133D70FF1FEE0FFF1FE958FD4E608071808280A7
S1133D809380D8012D913D914D915C91621A730AF3
S1133D90840A950A6082718282829382675F7C4E74
S1133DA0FB016081633009F7E0912102E330F9F00F
S1133DB0FF27EE0FFF1FEE0FFF1FE958FD4E608037
S1133DC0718082809380611471048104910421F4D0
S1133DD08EE00E94AE010BC00E949902AB01BC01AF
S1133DE0E1E0EE2E9401830183E00E947A02F1E087
S1133DF0FF16E9F0FF1628F022E0F21609F043C09E
S1133E002CC01092881280E090EDA2E0B0E0809384
S1133E10891290938A12A0938B12B0938C1240E073
S1133E2050ED62E070E080E00E94A41742C010925E
S1133E30641580E090E6A9E0B0E080936515909366
S1133E406615A0936715B093681540E050E669E0E5
S1133E5070E081E00E94A41774C01092091280E0FF
S1133E6090E1AEE0B0E080930A1290930B12A0931D
S1133E700C12B0930D1240E050E16EE070E082E06D
S1133E800E94A417D1C0409101005091020060919A
S1133E900300709104008F2D0E94A41731E0F316E3
S1133EA009F44FC0F31628F042E0F41609F01BC3DE
S1133EB0BBC020916D0230916E02442755277AE0F1
S1133EC0220F331F441F551F7A95D1F760911102B9
S1133ED070911202809113029091140203EF0E94D8
S1133EE0B62560931102709312028093130290938B
S1133EF0140210926E0210926D0220916F023091A2
S1133F007002442755276AE0220F331F441F551FB0
S1133F106A95D1F76091150270911602809117028B
S1133F20909118020E94B6256093150270931602B0
S1133F3080931702909318021092700210926F02ED
S1133F40D2C20091290210912A026CE1C8010E9498
S1133F50C2027C01C8010E94C902005A1F4FD80145
S1133F601C928091890290918A02019690938A0210
S1133F70809389020197F7018183892F9927808390
S1133F8020911102309112024091130250911402B7
S1133F90233031054105510518F42FEF3FEF06C0DA
S1133FA060E070ED82E090E00E94F527F701238342
S1133FB0832F992782832091150230911602409114
S1133FC0170250911802233031054105510518F4A8
S1133FD02FEF3FEF06C060E070ED82E090E00E94BA
S1133FE0F527F7012583832F99278483809119026C
S1133FF090911A02A0911B02B0911C028187292F73
S11340003A2F4B2F552720879D0144275527278377
S11340108B2F9927AA27BB27868380911E0282872C
S11340208091200283875FC2E0902B02F0902C02E3
S113403066E3C7010E94C2028C01C7010E94C90243
S113404020E630E0E20EF31ED7011C9280918B0231
S113405090918C02019690938C0280938B0201972D
S1134060F8018183892F992780838091310290916F
S113407032028383892F992782838091330290911E
S113408034028583892F9927848380913A02909101
S11340903B02A0913C02B0913D028187292F3A2F27
S11340A04B2F552720879D014427552727838B2F86
S11340B09927AA27BB27868380913E0290913F02CD
S11340C0A0914002B09141028587292F3A2F4B2FAE
S11340D0552724879D014427552723878B2F99270C
S11340E0AA27BB2782878091420290914302878747
S11340F0892F992786878091440290914502A09147
S11341004602B0914702838B292F3A2F4B2F552714
S1134110228B9D0144275527218B8B2F9927AA2772
S1134120BB27808B8091480290914902A0914A025A
S1134130B0914B02878B292F3A2F4B2F5527268B73
S11341409D0144275527258B8B2F9927AA27BB2709
S1134150848B80914C0290914D02A0914E02B091BB
S11341604F02838F292F3A2F4B2F5527228F9D01E2
S113417044275527218F8B2F9927AA27BB27808F68
S11341808091500290915102858F892F9927848FB5
S11341908091520290915302A0915402B091550221
S11341A081A3292F3A2F4B2F552720A39D01442764
S11341B05527278F8B2F9927AA27BB27868F809176
S11341C056029091570283A3892F992782A3809145
S11341D058029091590285A3892F992784A383C1FA
S11341E08FB7F8941092A3172091FA1440E0283066
S11341F009F441E030E0293009F431E0442311F4BA
S1134200332351F01092FA14E091A513FF27EE0F17
S1134210FF1FE65DFC4E108299278FBF442311F4E3
S1134220332331F19FB7F8948091F4158F5F809315
S1134230F41580912613833479F42091941380919A
S11342409313821779F0822F8F5F809394138630B3
S113425048F01092941306C0A0E0442309F4A1E0AE
S113426071E002C0A0E070E0892F99278FBF06C0DB
S1134270222311F010E06CC0A0E070E08FB7F89436
S11342809927209177028FBF222341F08FB7F894AA
S113429099272AE02093FA148FBF42C08FB7F8946D
S11342A0992760912A1340912C138FBF8FB7F894EC
S11342B0282F332750E090919313809194139817EB
S11342C009F451E02FBF552341F5662331F55FB75B
S11342D0F89482E080932A138FB7F894282F332719
S11342E040E09091931380919413981709F441E05E
S11342F02FBF442311F080E006C0E0919413FF2700
S1134300ED56FC4E828180932B1383E48093261315
S11343101092A513852F99270EC04150423010F0FA
S113432010E00BC08FB7F894992725E42093261347
S113433021E02093A5138FBF11E0772349F08FB7B5
S1134340F8949927A09380028FBF83E10E94AE0165
S11343508FB7F894E82EFF248091FA148A3021F460
S11343600E94ED01EFBEBFC0EFBE112309F4BBC034
S11343702FB7F89433271092AD171092AC17109200
S1134380221381E08093FA142FBF0E9452028823E3
S113439009F4A9C08FB7F894992729E02093FA1457
S11343A08FBF0E9466029FC08091C1008F7B809363
S11343B0C1008091C1008F778093C1001092F914DD
S11343C0109210138091C10088608093C100809185
S11343D0C10080618093C1008091C1008068809396
S11343E0C1008FB7F89499271092FA1410920D1304
S11343F08FBF109201131092F51575C082E14FC062
S11344008091C100877F8093C1008091C1008F7E1D
S11344108093C1000E94D50166C010927D02109263
S11344207C028FB7F8949927209180028FBF8091E6
S11344308102811123E040917A0250917B028091A4
S11344408202882309F04FC0222341F080912F0279
S11344508F5F80932F020E94A50120C03FB7F8947C
S11344602091DC15E22FFF27EE0FFF1FED56FD4EC6
S1134470808191814817590771F4822F8F5F80934F
S1134480DC15883210F01092DC158091011388231A
S113449011F010920113832F99278FBF80E00E949F
S11344A0AE0121C08FB7F8949927209185023091ED
S11344B08602409192128FBF8FB7F894E42FFF27A2
S11344C0EE0FFF1FED5DFD4F3183208320917802B5
S11344D0442311F02B7F01C02D7F2093780210928A
S11344E0830299278FBF2F960FB6F894DEBF0FBEB5
S11344F0CDBFDF91CF911F910F91FF90EF90DF908F
S1134500CF90BF90AF909F908F907F906F905F906F
S11345104F903F902F9008958091F0158F3FB1F008
S1134520282F3327F901E751FD4E80818093F01540
S11345308F3F11F48093AB178FEF80832F3F31F0BF
S1134540822F0E944F1881E090E0089580E090E06F
S11345500895FF920F931F93FFB6F89414BE88E159
S11345600FB6F89480936000109260000FBE45E18E
S113457050E06FEF70E089EE92E10E944E288FEFD9
S11345808093F0158093AB1756985E9854985C9876
S113459080916F008F7D80936F00209A289A279ACC
S11345A02F980E9A169A8EE293E190938F1280932D
S11345B08E1210921A138AE58093081381E0809377
S11345C0810080E28093B60083E08093B100809103
S11345D08400909185004AE7209184003091850001
S11345E02817390708F44150442311F0C901F4CFC6
S11345F09091B2008091B2008917E1F32091840078
S1134600309185009091B2008091B2008917E1F356
S11346108091840090918500821B930B4096B5E0B5
S113462096958795BA95E1F79093F2158093F115D5
S11346301092B1008091B10080938100809181003B
S11346408093B6001092B2001092850010928400FC
S11346508FEF87BB87B386BB8091B6008571E1F786
S11346600A9A099A089A129A119A109A18B88FEF0E
S113467087B90C9814981092950010929400809128
S1134680710081608093710080919100887F8260C5
S113469080939100109285001092840080916F00A5
S11346A0816080936F0080918100887F8260809315
S11346B081000E948C228823E1F712E006E06091D9
S11346C0F1157091F21588279927ACE0660F771FD2
S11346D0881F991FAA95D1F720E031EE40E050E001
S11346E00E94F527215030402093C400832F99273E
S11346F08093C5001093C0000093C2001092C100C3
S11347002093CC008093CD001093C8000093CA007E
S11347101092C90084E490E09093DB158093DA153D
S113472010922A1310922C132AE02093FA14109258
S11347302213109226131092F4151092AD171092B2
S1134740AC171092A3171092A5131092D5151092BE
S1134750D41584E080930D131092FE141092E91581
S1134760109211131092A2131092A1131092941389
S11347701092931389E695E1909300158093FF14AA
S113478011E01093921310921B1380E092E0909327
S1134790FF128093FE1220938D1288E08093A41759
S11347A080E28093911283E080931513109390120A
S11347B083E390E09093131380931213809100028B
S11347C0909101020196AA27BB2780931613909318
S11347D01713A0931813B09319130FEF0093251315
S11347E080E00E94B50C25E736E1309372122093E5
S11347F0711228ED36E130937412209373122BE377
S113480037E130937612209375122FEF3FEF3093F8
S1134810E0152093DF153093E2152093E1153093D2
S1134820E4152093E3153093E6152093E5153093B2
S1134830E8152093E71520E090E0882309F491E03F
S1134840911709F421E080910002211709F03CC17D
S11348508295807F80938D020093071310926B02E0
S113486010926C028091B60080628093B600249A04
S11348708091B60081FDFCCF82E48093B0008091EA
S1134880B60080FDFCCF83E08093B1008091B60038
S113489083FDFCCF86EE8093B3008091700082602C
S11348A0809370000E94AF050E948C228823E1F758
S11348B08F2D99278FBF789410E007C01130B1F085
S11348C0113018F01230C9F522C01092881280E01D
S11348D090EDA2E0B0E08093891290938A12A093A5
S11348E08B12B0938C12E8E8F2E1F6C010926415D2
S11348F080E090E6A9E0B0E080936515909366159A
S1134900A0936715B0936815E4E6F5E1E5C010924D
S1134910091280E090E1AEE0B0E080930A12909337
S11349200B12A0930C12B0930D1240E050E16EE014
S113493070E082E00E94A4170FC0409101005091E2
S113494002006091030070910400812F0E94A4175B
S11349501F5F133008F4B2CF8FB7F8949927E3E9B7
S1134960F2E12EE832E0219331932D593F4F42E199
S1134970E33EF407C1F71092DC151092E312109293
S1134980F51511E0109301138FBF80E091E090932F
S1134990FF128093FE1260918D1277278827992742
S11349A0982F872F762F662724E630E040E050E0EA
S11349B00E94F5273093131320931213109330029F
S11349C01093020280E00E94721380915A0288239D
S11349D031F484E080935A0285E00E94AE010E9483
S11349E0D5018FB7F894482F552753C08091700094
S11349F0992783709070892B19F4E5E0F0E014C0D6
S1134A008091B6008A71E1F78091B3009091B20071
S1134A10891B8C3038F08091B200853F18F4E3E0B4
S1134A20F0E002C0E2E0F0E080916E008670E9F40C
S1134A3080916F008E72C9F40CB407FC16C080918B
S1134A40C100807E91F48091C900807E71F48091D0
S1134A50BC0082FD0AC080917A0087FF03C081E018
S1134A6090E005C085E090E002C080E090E023B7CC
S1134A708E1708F4E82FFF27EA50FD4FE491207FBA
S1134A802160E22BE3BF78948895F89483B78E7FF6
S1134A9083BF8091F0158F3F09F4A8CF282F3327C7
S1134AA0F901E751FD4E80818093F0158F3F11F499
S1134AB08093AB178FEF80832F3F09F497CF4FBFBD
S1134AC0822F0E944F188DCF8295807F80938D0214
S1134AD08FEF80930713C2CE418152816381748129
S1134AE0812F0E94A4171F5FE9CE552786179707C9
S1134AF0E8F0861B970B9C013070F9014E9F9001E2
S1134B004F9F300D5E9F300D1124232F3327892FA3
S1134B109927FC014E9FC0014F9F900D5E9F900D01
S1134B201124860F971F280F391F1EC09B01281BB5
S1134B30390BC901232F3327F9014E9F90014F9F51
S1134B40300D5E9F300D11249070FC014E9FC0010A
S1134B504F9F900D5E9F900D1124892F9927280F48
S1134B60391F621B730B9B01C90108956F927F92D9
S1134B708F929F92AF92BF92CF92DF92EF92FF9269
S1134B800F931F93CF93DF9359016A01C02FDD2741
S1134B90602E772488249924621773078407950765
S1134BA030F19B01AC012A193B094C095D09C9018B
S1134BB09070BC01C69FC001C79F900DD69F900DF9
S1134BC01124892F99277C0100271127232F342FA3
S1134BD0452F5527C401B3010E94AF276A0D7B1DE1
S1134BE08C1D9D1DE60EF71E081F191F26C0790196
S1134BF08A01E61AF70A080B190B5527412F302FA3
S1134C002F2DC401B3010E94AF272FEFE222FF240E
S1134C10CE9D9001CF9D300DDE9D300D1124232FAC
S1134C20332744275527260F371F481F591F86014E
S1134C307501E21AF30A040B150BC801B701DF91E1
S1134C40CF911F910F91FF90EF90DF90CF90BF9085
S1134C50AF909F908F907F906F900895ACE2B0E0FA
S1134C60E4E3F6E20C941728222E332E442E552E1C
S1134C70662E772E882E992EFE013196A8E0119289
S1134C80AA95E9F729823A824B825C826D827E8200
S1134C908F829886FE013996B8E01192BA95E9F7A9
S1134CA0A986BA86CB86DC86ED86FE860F87188BAE
S1134CB089819A81AB81BC8189A79AA7ABA7BCA73C
S1134CC07C018D018FEF9FEFA0E0B0E0E822F92294
S1134CD00A231B2389A59AA5ABA5BCA51D014424C1
S1134CE0552489859A85AB85BC858DA39EA3AFA3E6
S1134CF0B8A75C016D018FEF9FEFA0E0B0E0A822A0
S1134D00B922CA22DB228DA19EA1AFA1B8A53D0183
S1134D1088249924C801B701A60195010E94AF27F0
S1134D2069A37AA38BA39CA3C801B701A40193012F
S1134D300E94AF277B018C01C201B101A60195013C
S1134D400E94AF275B016C01C201B101A401930170
S1134D500E94AF273B014C01EA0CFB1C0C1D1D1DDE
S1134D6089A19AA1ABA1BCA19D01442755272E0D71
S1134D703F1D401F511F2A153B054C055D0540F49E
S1134D8080E090E0A1E0B0E0680E791E8A1E9B1ED0
S1134D90CA01AA27BB27860D971DA81DB91D8D8F93
S1134DA09E8FAF8FB8A3A9013327222789A19AA187
S1134DB0ABA1BCA1A070B070280F391F4A1F5B1FA4
S1134DC0298F3A8F4B8F5C8FA98CBA8CCB8CDC8C5F
S1134DD0ED8CFE8C0F8D18A1FE01719698E0119256
S1134DE09A95E9F7ED8AFE8A0F8B188F2D813E8103
S1134DF04F8158856DA17EA18FA198A50E94AF27F0
S1134E003B014C012D853E854F85588969A57AA5BE
S1134E108BA59CA50E94AF272D893E894F89588D6B
S1134E20260F371F481F591F260D371D481D591DB2
S1134E302D8B3E8B4F8B588F6D887E888F88988CF6
S1134E402A2D3B2D4C2D5D2D662D772D882D992DEA
S1134E50E2E1AC960C943328A0E1B0E0E2E3F7E29F
S1134E600C941728222E332E442E552E662E772E80
S1134E70882E992E002309F466C088E0FE0131963D
S1134E8011928A95E9F729833A834B835C836D8376
S1134E907E838F829887E0E2E01B1E16CCF52D817D
S1134EA03E814F815885602F772767FD7095DA0121
S1134EB0C901062E04C0B695A795979587950A94BF
S1134EC0D2F78D879E87AF87B88B04C0220F331F1C
S1134ED0441F551FEA95D2F789819A81AB81BC8121
S1134EE004C0B695A795979587956A95D2F7282B10
S1134EF0392B4A2B5B2B29873A874B875C8729847C
S1134F003A844B845C846D847E848F8498881BC02F
S1134F101D861E861F86188A2E2F332727FD30955F
S1134F20309521953F4F8D819E81AF81B88504C016
S1134F30B695A795979587952A95D2F789879A87E5
S1134F40AB87BC87DCCF222D332D442D552D662D08
S1134F50772D882D992DE2E160960C943328629F79
S1134F60D001739FF001829FE00DF11D649FE00D5D
S1134F70F11D929FF00D839FF00D749FF00D659FBE
S1134F80F00D9927729FB00DE11DF91F639FB00DBD
S1134F90E11DF91FBD01CF0111240895AA1BBB1BFC
S1134FA051E107C0AA1FBB1FA617B70710F0A61B25
S1134FB0B70B881F991F5A95A9F780959095BC0146
S1134FC0CD01089597FB092E07260AD077FD04D05A
S1134FD0E5DF06D000201AF4709561957F4F08959F
S1134FE0F6F7909581959F4F0895A1E21A2EAA1B7A
S1134FF0BB1BFD010DC0AA1FBB1FEE1FFF1FA21785
S1135000B307E407F50720F0A21BB30BE40BF50B81
S1135010661F771F881F991F1A9469F7609570950A
S1135020809590959B01AC01BD01CF0108952F920D
S11350303F924F925F926F927F928F929F92AF9224
S1135040BF92CF92DF92EF92FF920F931F93CF9371
S1135050DF93CDB7DEB7CA1BDB0B0FB6F894DEBF08
S11350600FBECDBF09942A88398848885F846E842E
S11350707D848C849B84AA84B984C884DF80EE8078
S1135080FD800C811B81AA81B981CE0FD11D0FB681
S1135090F894DEBF0FBECDBFED010895DC0101C061
S10F50A06D9341505040E0F70895FFCF9D
S11350AC010001FFFF010022FFFFFFFFFFFF01FFD3
S11350BCFF000000000000000000010000000100DF
S11150CC0103FF2E1491142E14A713011500D6
S9030000FC
